{"abi":[{"type":"constructor","inputs":[],"stateMutability":"nonpayable"},{"type":"function","name":"MAX_BATCH","inputs":[],"outputs":[{"name":"","type":"uint256","internalType":"uint256"}],"stateMutability":"view"},{"type":"function","name":"MODE_DELEGATED","inputs":[],"outputs":[{"name":"","type":"uint8","internalType":"uint8"}],"stateMutability":"view"},{"type":"function","name":"MODE_DIRECT","inputs":[],"outputs":[{"name":"","type":"uint8","internalType":"uint8"}],"stateMutability":"view"},{"type":"function","name":"SOURCE_DESKTOP","inputs":[],"outputs":[{"name":"","type":"uint8","internalType":"uint8"}],"stateMutability":"view"},{"type":"function","name":"SOURCE_MOBILE","inputs":[],"outputs":[{"name":"","type":"uint8","internalType":"uint8"}],"stateMutability":"view"},{"type":"function","name":"SOURCE_OPERATOR","inputs":[],"outputs":[{"name":"","type":"uint8","internalType":"uint8"}],"stateMutability":"view"},{"type":"function","name":"SOURCE_WEB","inputs":[],"outputs":[{"name":"","type":"uint8","internalType":"uint8"}],"stateMutability":"view"},{"type":"function","name":"isOperator","inputs":[{"name":"","type":"address","internalType":"address"}],"outputs":[{"name":"","type":"bool","internalType":"bool"}],"stateMutability":"view"},{"type":"function","name":"owner","inputs":[],"outputs":[{"name":"","type":"address","internalType":"address"}],"stateMutability":"view"},{"type":"function","name":"registerTrack","inputs":[{"name":"trackId","type":"bytes32","internalType":"bytes32"},{"name":"metadataHash","type":"bytes32","internalType":"bytes32"}],"outputs":[],"stateMutability":"nonpayable"},{"type":"function","name":"registerTracks","inputs":[{"name":"trackIds","type":"bytes32[]","internalType":"bytes32[]"},{"name":"metadataHashes","type":"bytes32[]","internalType":"bytes32[]"}],"outputs":[],"stateMutability":"nonpayable"},{"type":"function","name":"scrobble","inputs":[{"name":"user","type":"address","internalType":"address"},{"name":"trackId","type":"bytes32","internalType":"bytes32"},{"name":"guildId","type":"bytes32","internalType":"bytes32"},{"name":"playbackStartedAt","type":"uint64","internalType":"uint64"},{"name":"creditedDurationMs","type":"uint32","internalType":"uint32"},{"name":"sourceType","type":"uint8","internalType":"uint8"},{"name":"submissionMode","type":"uint8","internalType":"uint8"}],"outputs":[],"stateMutability":"nonpayable"},{"type":"function","name":"scrobbleBatch","inputs":[{"name":"user","type":"address","internalType":"address"},{"name":"trackIds","type":"bytes32[]","internalType":"bytes32[]"},{"name":"guildIds","type":"bytes32[]","internalType":"bytes32[]"},{"name":"playbackStartedAts","type":"uint64[]","internalType":"uint64[]"},{"name":"creditedDurationsMs","type":"uint32[]","internalType":"uint32[]"},{"name":"sourceTypes","type":"uint8[]","internalType":"uint8[]"},{"name":"submissionModes","type":"uint8[]","internalType":"uint8[]"}],"outputs":[],"stateMutability":"nonpayable"},{"type":"function","name":"setOperator","inputs":[{"name":"operator","type":"address","internalType":"address"},{"name":"active","type":"bool","internalType":"bool"}],"outputs":[],"stateMutability":"nonpayable"},{"type":"function","name":"tracks","inputs":[{"name":"","type":"bytes32","internalType":"bytes32"}],"outputs":[{"name":"metadataHash","type":"bytes32","internalType":"bytes32"},{"name":"registeredAt","type":"uint64","internalType":"uint64"},{"name":"exists","type":"bool","internalType":"bool"}],"stateMutability":"view"},{"type":"function","name":"transferOwnership","inputs":[{"name":"newOwner","type":"address","internalType":"address"}],"outputs":[],"stateMutability":"nonpayable"},{"type":"event","name":"OperatorUpdated","inputs":[{"name":"operator","type":"address","indexed":true,"internalType":"address"},{"name":"active","type":"bool","indexed":false,"internalType":"bool"}],"anonymous":false},{"type":"event","name":"OwnerUpdated","inputs":[{"name":"newOwner","type":"address","indexed":true,"internalType":"address"}],"anonymous":false},{"type":"event","name":"Scrobbled","inputs":[{"name":"user","type":"address","indexed":true,"internalType":"address"},{"name":"trackId","type":"bytes32","indexed":true,"internalType":"bytes32"},{"name":"guildId","type":"bytes32","indexed":true,"internalType":"bytes32"},{"name":"playbackStartedAt","type":"uint64","indexed":false,"internalType":"uint64"},{"name":"creditedDurationMs","type":"uint32","indexed":false,"internalType":"uint32"},{"name":"sourceType","type":"uint8","indexed":false,"internalType":"uint8"},{"name":"submissionMode","type":"uint8","indexed":false,"internalType":"uint8"}],"anonymous":false},{"type":"event","name":"TrackRegistered","inputs":[{"name":"trackId","type":"bytes32","indexed":true,"internalType":"bytes32"},{"name":"metadataHash","type":"bytes32","indexed":true,"internalType":"bytes32"},{"name":"registeredAt","type":"uint64","indexed":false,"internalType":"uint64"}],"anonymous":false},{"type":"error","name":"BatchTooLarge","inputs":[]},{"type":"error","name":"InvalidMetadataHash","inputs":[]},{"type":"error","name":"InvalidSourceType","inputs":[]},{"type":"error","name":"InvalidSubmissionMode","inputs":[]},{"type":"error","name":"InvalidTimestamp","inputs":[]},{"type":"error","name":"InvalidTrackId","inputs":[]},{"type":"error","name":"LengthMismatch","inputs":[]},{"type":"error","name":"TrackAlreadyRegistered","inputs":[]},{"type":"error","name":"TrackNotRegistered","inputs":[]},{"type":"error","name":"Unauthorized","inputs":[]},{"type":"error","name":"ZeroAddress","inputs":[]}],"bytecode":{"object":"0x60808060405234604d575f80546001600160a01b031916339081178255907f4ffd725fc4a22075e9ec71c59edf9c38cdeb588a91b24fc5b61388c5be41282b9080a26109c090816100528239f35b5f80fdfe60806040908082526004361015610014575f80fd5b5f3560e01c908163081090091461068757508063180eab5c146105df57806325948b8b14610226578063558a72971461054957806358760324146103215780636d70f7ae146102e557806387069355146102ca57806387cc8cfb146102af5780638da5cb5b14610288578063950bff9f1461026d578063977c494a1461015f578063b2ae6e3b1461022b578063cb6a001814610226578063e2cf189014610164578063eaa2319b1461015f5763f2fde38b146100ce575f80fd5b3461015b57602036600319011261015b576100e761071d565b5f54906001600160a01b0390818316330361014b571690811561013a576001600160a01b03191681175f9081557f4ffd725fc4a22075e9ec71c59edf9c38cdeb588a91b24fc5b61388c5be41282b9080a2005b825163d92e233d60e01b8152600490fd5b83516282b42960e81b8152600490fd5b5f80fd5b610733565b503461015b5760e036600319011261015b5761017e61071d565b60643567ffffffffffffffff8116810361015b5760843563ffffffff8116810361015b5760a4359160ff8316830361015b5760c4359360ff8516850361015b576001600160a01b038116801561021557331415806101ff575b6101ef576101ed95506044359060243590610884565b005b85516282b42960e81b8152600490fd5b50335f52600160205260ff865f205416156101d7565b865163d92e233d60e01b8152600490fd5b610702565b503461015b578060031936011261015b57335f52600160205260ff815f2054161561025e576101ed602435600435610780565b516282b42960e81b8152600490fd5b503461015b575f36600319011261015b576020905160c88152f35b503461015b575f36600319011261015b575f5490516001600160a01b039091168152602090f35b503461015b575f36600319011261015b576020905160038152f35b503461015b575f36600319011261015b576020905160048152f35b503461015b57602036600319011261015b576020906001600160a01b0361030a61071d565b165f526001825260ff815f20541690519015158152f35b503461015b5760e036600319011261015b5761033b61071d565b67ffffffffffffffff9160243583811161015b5761035d9036906004016106d1565b92909160443585811161015b576103789036906004016106d1565b9560643581811161015b576103919036906004016106d1565b9260843583811161015b576103aa9036906004016106d1565b9060a43585811161015b576103c39036906004016106d1565b99909b60c43587811161015b576103de9036906004016106d1565b90999098906001600160a01b038c1680156105385733141580610522575b61025e578c8a8f85811492831593610517575b831561050c575b8315610501575b5082156104f6575b50506104e35760c88e116104d357505f5b8d811061043f57005b8e818f928f908f908f908f908f908f908f90808c8f8f93610477948f82610469916104709561074e565b359661074e565b359461074e565b35928316830361015b5761048e8f8f908a9161074e565b359363ffffffff8516850361015b576104b9896104c4926104be6104b98360019f9d6104ca9e61074e565b610772565b9861074e565b95610884565b019d509c610436565b516305beb17160e11b8152600490fd5b516001621398b960e31b03198152600490fd5b141590508a8f610425565b81141592508f61041d565b818a14159350610416565b81861415935061040f565b50335f52600160205260ff815f205416156103fc565b815163d92e233d60e01b8152600490fd5b503461015b578060031936011261015b5761056261071d565b6024359081151580920361015b575f546001600160a01b0391908216330361014b57169182156105cf577f966c160e1c4dbc7df8d69af4ace01e9297c3cf016397b7914971f2fbfa32672d91602091845f5260018352805f2060ff1981541660ff841617905551908152a2005b5163d92e233d60e01b8152600490fd5b503461015b578060031936011261015b5767ffffffffffffffff60043581811161015b576106119036906004016106d1565b909160243590811161015b5761062b9036906004016106d1565b91335f52600194600160205260ff815f2054161561025e578382036104e35760c882116104d357505f5b81811061065e57005b8061068161066e8893858961074e565b3561067a83888861074e565b3590610780565b01610655565b90503461015b57602036600319011261015b576060916004355f52600260205260ff815f206001815491015490845267ffffffffffffffff81166020850152821c16151590820152f35b9181601f8401121561015b5782359167ffffffffffffffff831161015b576020808501948460051b01011161015b57565b3461015b575f36600319011261015b57602060405160028152f35b600435906001600160a01b038216820361015b57565b3461015b575f36600319011261015b57602060405160018152f35b919081101561075e5760051b0190565b634e487b7160e01b5f52603260045260245ffd5b3560ff8116810361015b5790565b801561087257811561086057805f526002602052604060ff6001825f200154821c166108505767ffffffffffffffff80421682519260608401928484108185111761083c577ffd0dccbda68ecfa455ab1405a3f4c383e152fb73de98a2024a048df21d4c73f394602094835287815284810191848352600184830192818452895f5260028852855f20905181550192511668ff0000000000000000835492511515851b169168ffffffffffffffffff19161717905551908152a3565b634e487b7160e01b5f52604160045260245ffd5b5163d6fb199560e01b8152600490fd5b60405163fac5ca3360e01b8152600490fd5b6040516369f4331b60e01b8152600490fd5b92959094939195851561087257855f52600260205260409060ff6001835f200154831c16156109795767ffffffffffffffff169485156109685760ff169160018310158061095d575b1561094c5760ff1692600184101580610941575b1561093057815195865263ffffffff16602086015284015260608301526001600160a01b0316907f980577c6abfe93e7ba3197f5479e4487c8b701b1e50f137c9f8a618969fb6a6f90608090a4565b8151633729e15360e11b8152600490fd5b5060028411156108e1565b8151630ecbf59560e01b8152600490fd5b5060048311156108cd565b815163b7d0949760e01b8152600490fd5b81516339f5e9bb60e01b8152600490fdfea2646970667358221220e16333bd452c46cd4d5fbf50c8ddb589e9bd550a8835a87cde8810455efc400b64736f6c63430008190033","linkReferences":{}},"methodIdentifiers":{"MAX_BATCH()":"950bff9f","MODE_DELEGATED()":"25948b8b","MODE_DIRECT()":"977c494a","SOURCE_DESKTOP()":"cb6a0018","SOURCE_MOBILE()":"87cc8cfb","SOURCE_OPERATOR()":"87069355","SOURCE_WEB()":"eaa2319b","isOperator(address)":"6d70f7ae","owner()":"8da5cb5b","registerTrack(bytes32,bytes32)":"b2ae6e3b","registerTracks(bytes32[],bytes32[])":"180eab5c","scrobble(address,bytes32,bytes32,uint64,uint32,uint8,uint8)":"e2cf1890","scrobbleBatch(address,bytes32[],bytes32[],uint64[],uint32[],uint8[],uint8[])":"58760324","setOperator(address,bool)":"558a7297","tracks(bytes32)":"08109009","transferOwnership(address)":"f2fde38b"},"id":0}